:020000040800F2
:10000000A04C0020650200087F0A0008770A00085B
:100010007B0A0008150300081D0C00080000000002
:10002000000000000000000000000000CD010008FA
:10003000190300080000000011020008810A0008EE
:100040007F0200087F0200087F0200087F0200088C
:100050007F0200087F0200087F0200087F0200087C
:100060007F0200087F0200087F0200087F0200086C
:100070007F0200087F0200087F0200087F0200085C
:100080007F0200087F0200087F0200087F0200084C
:100090007F0200087F0200087F0200087F0200083C
:1000A0007F0200087F0200087F0200087F0200082C
:1000B0007F0200087F0200087F0200087F0200081C
:1000C0007F0200087F0200087F0200087F0200080C
:1000D0007F0200080D0C00087F0200087F02000864
:1000E0007F0200087F0200087F0200087F020008EC
:1000F0007F0200087F0200087F0200087F020008DC
:100100007F0200087F0200087F0200087F020008CB
:100110007F0200087F0200087F0200087F020008BB
:100120007F0200087F0200087F0200087F020008AB
:1001300000F002F800F03AF80AA090E8000C8244BF
:100140008344AAF10107DA4501D100F02FF8AFF29C
:10015000090EBAE80F0013F0010F18BFFB1A43F0A5
:1001600001031847FC1600001C170000103A24BFBA
:1001700078C878C1FAD8520724BF30C830C144BF0C
:1001800004680C607047000000230024002500264E
:10019000103A28BF78C1FBD8520728BF30C148BFEA
:1001A0000B6070471FB51FBD10B510BD00F07FF884
:1001B0001146FFF7F7FF00F07DFD00F09DF803B456
:1001C000FFF7F2FF03BC00F02BFD0000224B196883
:1001D0000868B0E8F00F80F30988BFF36F8F4FF025
:1001E000000080F311884EF00D0E704700000000F3
:1001F00006480068006880F3088862B661B6BFF3FD
:100200004F8FBFF36F8F00DF00BF00BF08ED00E02E
:10021000EFF30980BFF36F8F0F4B1A6820E9F00FDF
:10022000106008B54FF0BF0080F31188BFF34F8F07
:10023000BFF36F8F01F024F94FF0000080F31188B5
:10024000BDE8084019680868B0E8F00F80F3098835
:10025000BFF36F8F704700BF30000020EFF30580C1
:10026000704700000948804709480047FEE7FEE75D
:10027000FEE7FEE7FEE7FEE7FEE7FEE7FEE7FEE756
:1002800004480549054A064B70470000B50A0008B6
:1002900031010008A0460020A04C0020A04800200A
:1002A000A0480020704770477047704770477546F8
:1002B00000F02CF8AE4605006946534620F00700D2
:1002C000854618B020B5FFF7DBFFBDE820404FF0B2
:1002D00000064FF000074FF000084FF0000B21F030
:1002E0000701AC46ACE8C009ACE8C009ACE8C009FD
:1002F000ACE8C0098D46704710B50446AFF30080E6
:100300002046BDE81040FFF75ABF00000048704784
:100310004046002000BFFEE77047000070B504466D
:10032000002594F82100022803D00420A0630125B1
:10033000C1E02068006820F00E0021680860206895
:10034000006820F00100216808605C49206888424C
:1003500052D95A4978392068884201D1012047E0B2
:10036000564964392068884201D1102040E0534941
:1003700050392068884201D1801539E04F493C3915
:100380002068884201D1801432E04C492839206825
:10039000884202D14FF480302AE04849143920685D
:1003A000884202D14FF4801022E0444920688842FC
:1003B00001D140041CE042492068884201D101205B
:1003C00016E03F4914312068884201D110200FE027
:1003D0003B4928312068884201D1801508E038491E
:1003E0003C312068884201D1801401E04FF4803014
:1003F0003349091F086051E0304978392068884244
:1004000001D1012047E02D4964392068884201D19B
:10041000102040E0294950392068884201D18015D8
:1004200039E026493C392068884201D1801432E005
:10043000224928392068884202D14FF480302AE0CE
:100440001E4914392068884202D14FF4801022E0FE
:100450001A492068884201D140041CE018492068EC
:10046000884201D1012016E01549143120688842E4
:1004700001D110200FE0124928312068884201D1B3
:10048000801508E00E493C312068884201D1801473
:1004900001E04FF48030094980394860012084F838
:1004A000210000BF002084F8200000BF606B10B165
:1004B0002046616B8847284670BD000080000240DE
:1004C000080402402DE9F847024600239C467BE1E0
:1004D0004FF0010808FA03F4D1F8008008EA04009C
:1004E000A0427DD1DFF8F4A2D1F80480A8EB0A097C
:1004F000D0453AD014DCB8F1030F50D009DCB8F184
:10050000000F31D0B8F1010F1CD0B8F1020F49D162
:1005100020E0B8F1110F18D0B8F1120F42D11EE04F
:10052000B9F5881F25D006DCB9F5803F20D0B9F594
:10053000801F37D11AE0B9F5001F18D0B9F5041F94
:1005400030D117E0D1F80CC02DE0D1F80C8008F1C3
:10055000040C28E0D1F80C8008F1080C23E0D1F855
:100560000C8008F10C0C1EE000BF00BF00BF00BFF4
:1005700000BF00BFD1F80880B8F1000F02D14FF0E2
:10058000040C0BE0D1F80880B8F1010F03D14FF053
:10059000080C146102E04FF0080C546103E04FF0C6
:1005A000000C00E000BF00BFFF2801D8904601E02A
:1005B00002F104084646FF2802D84FEA830803E008
:1005C000A3F108084FEA88084746D6F800804FF0A4
:1005D0000F0909FA07F928EA09080CFA07F900E0F7
:1005E0007AE048EA0908C6F80080D1F8048008F0EB
:1005F0008058B8F1805F6FD100BFDFF8E481D8F890
:10060000188048F00108DFF8D891C9F81880C8466A
:10061000D8F8188008F00108CDF8008000BF00BFAE
:100620004FEAB9384FEA930958F829504FEA8378CE
:100630004FEA18794FF00F0808FA09F825EA08057B
:10064000DFF8A081424502D14FF0000824E0DFF836
:100650009881424502D14FF001081DE0DFF88C81FE
:10066000424502D14FF0020816E0DFF8848142458E
:1006700002D14FF003080FE0DFF87881424502D144
:100680004FF0040808E0DFF87081424502D14FF0D6
:10069000050801E04FF006084FEA83794FEA19791F
:1006A00008FA09F848EA0505DFF850814FEA93098E
:1006B00048F82950D1F8048008F48038B8F5803F14
:1006C0000BD1DFF83C81D8F8008048EA0008DFF859
:1006D0003091C9F800800AE075E0DFF82481D8F88D
:1006E000008028EA0008DFF81891C9F80080D1F8E6
:1006F000048008F40038B8F5003F0ED1DFF800811F
:1007000008F10408D8F8008048EA0008DFF8F09003
:1007100009F10409C9F800800DE0DFF8E48008F170
:100720000408D8F8008028EA0008DFF8D49009F11E
:100730000409C9F80080D1F8048008F48018B8F5DD
:10074000801F0ED1DFF8B88008F10808D8F80080C3
:1007500048EA0008DFF8A89009F10809C9F8008004
:100760000DE0DFF89C8008F10808D8F8008028EA3E
:100770000008DFF88C9009F10809C9F80080D1F869
:10078000048008F40018B8F5001F0ED1DFF870805F
:1007900008F10C08D8F8008048EA0008DFF86090FB
:1007A00009F10C09C9F800800DE0DFF8548008F168
:1007B0000C08D8F8008028EA0008DFF8449009F116
:1007C0000C09C9F800805B1CD1F8008028FA03F8F6
:1007D000B8F1000F7FF47CAEBDE8F887000011107F
:1007E0000010024000080140000C014000100140D0
:1007F0000014014000180140001C014008000140A5
:10080000000401400AB1016101E00B04036170477B
:10081000704700002DE9F04704462068056820680D
:10082000C668206847694FF00008C14605F00F0808
:10083000B8F1000F0AD105F0200038B106F0200011
:1008400020B1204600F061F9BDE8F087B8F1000F53
:1008500071D007F0010018B906F4907000286AD032
:1008600005F0010030B106F4807018B1E06B40F083
:100870000100E06305F0040030B107F0010018B199
:10088000E06B40F00200E06305F0020030B107F0D9
:10089000010018B1E06B40F00400E06305F00800CF
:1008A00048B106F0200010B907F0010018B1E06B64
:1008B00040F00800E063E06B68B305F0200028B169
:1008C00006F0200010B1204600F01FF920684069B2
:1008D000C0F38019E06B00F0080010B9B9F1000F07
:1008E00022D0204600F0F1F82068406900F0400076
:1008F000B0B12068406920F0400021684861606B19
:1009000050B11848616B4863606BFFF707FD10B189
:10091000606B416B88470CE02046FFF779FF08E0E9
:100920002046FFF775FF04E02046FFF771FF002027
:10093000E06389E7FFE705F0800030B106F0800052
:1009400018B1204600F031F97EE705F0400030B1E3
:1009500006F0400018B1204600F0C7F874E700BF69
:1009600072E70000B70A000810B5034693F83A0092
:1009700020282FD101B10AB9012010BD00BF93F882
:100980003800012801D10220F7E7012083F8380060
:1009900000BF99629A85DA850020D863222083F807
:1009A0003A0000BF002083F8380000BF1868C06814
:1009B00040F480701C68E0601868406940F00100F5
:1009C0001C6860611868C06840F020001C68E06026
:1009D0000020D2E70220D0E710B504462049206865
:1009E00088423BD11F48008800F4004088BB1D4866
:1009F000008800F4804070B11B4800780A2803D0BA
:100A000000201849088024E01648008840F400407F
:100A1000144908801DE0144800780D2806D11148BB
:100A2000008840F480400F49088012E00E480078AA
:100A30000C490988C1F30D010C4A5054094800883B
:100A4000401C0849088008460088C72801DD0020AE
:100A50000880012204490648FFF786FF10BD000008
:100A600000380140080000200A000020700000202B
:100A700038010020704700BFFEE700BFFEE7704767
:100A800010B500BFBF2080F31188BFF34F8FBFF3B5
:100A90006F8F00BF00F06EFD18B14FF08050044919
:100AA000086000BF002080F3118800BF10BD000067
:100AB00004ED00E0704770B505466C6A0020E085E3
:100AC000E0842046FFF7A4FE70BD0168C96821F4E8
:100AD00090710268D1600168496921F001010268E2
:100AE0005161202180F83A10704710B50446206803
:100AF000C06820F040002168C860202084F83900D8
:100B00002046FFF7B7FF002010BD70B5044694F8EB
:100B10003A00222847D1A068B0F5805F0CD1206947
:100B200050B90025A66A20684068C0F308003080EC
:100B3000A06A801CA06215E0A56A0026A068B0F536
:100B4000805F03D0A06828B9206918B92068406880
:100B5000287004E02068406800F07F002870A06AD8
:100B6000401CA062E08D401E80B2E085C8B92068BC
:100B7000C06820F020002168C8602068C06820F4A8
:100B800080702168C8602068406920F001002168F9
:100B90004861202084F83A002046FFF71DFF00201E
:100BA00070BD0020FCE70220FAE7014691F8390009
:100BB000212828D18868B0F5805F0BD1086948B931
:100BC0000A6A1088C0F308000B685860086A801C25
:100BD000086205E00B6A581C086218780B685860B8
:100BE000C88C401E80B2C88458B90868C06820F01C
:100BF00080000B68D8600868C06840F040000B684F
:100C0000D860002070470220FCE7000010B50248C1
:100C1000FFF700FE10BD00003801002000BFFEE716
:100C200000BF704700B585B000BF00BF1E48806997
:100C300040F008001C4988610846806900F00800FF
:100C4000009000BF00BF00BF00BF00BF0846806922
:100C500040F0400088610846806900F04000009044
:100C600000BF00BF00BF2020019001200290039030
:100C70000320049001A90D48FFF724FC20200190D7
:100C800001A90B48FFF71EFC00BF012220210748E5
:100C9000FFF7B8FD00BF00BF012220210448FFF785
:100CA000B1FD00BF05B000BD00100240000C0140C6
:100CB000001801401CB5FFF7B5FF074802210023CB
:100CC0008022CDE9001005A1064800F023FC00F0C9
:100CD00099FB00BFFEE70000000000207461736B09
:100CE00031000000511200082DE9F04105460E4682
:100CF0002648076826480068001D00F0D1FA50B960
:100D00002348006890F82C10012088402149096888
:100D1000814320480160681CD8B9D6B11E49486893
:100D20001B49096888601A4982680968CA601849BD
:100D30000968091D8268516015490968091D8160AB
:100D4000154A134909684A6111460968491C11602E
:100D50001AE07C190E4800684460BC4207D20C4877
:100D60000168091D0D48006800F0BEFA0CE0084853
:100D70000168091D0A48006800F0B6FA09480068D1
:100D8000844201D207480460BDE8F081440000209D
:100D900030000020480000202C46002038000020B1
:100DA000340000206000002010B5044600F0B6FAC0
:100DB0002F480068401C2E4908602E48006840B942
:100DC0002C4804600846006801280DD100F024F981
:100DD0000AE02948006838B926480068C06AE16A14
:100DE000884201D82348046024480068401C2349F5
:100DF000086094F82C1001208840214909680843B4
:100E00001F490860E16A01EB81011E4A02EB810182
:100E10004868A0608268E260211D8268516081603C
:100E2000E16A01EB8101174A02EB81026261E16A2A
:100E300001EB8101134A52F82110491CE26A02EBCE
:100E40008202104B43F8221000F07AFA0A48006838
:100E500068B108480068C06AE16A884207D24FF06A
:100E6000805009490860BFF34F8FBFF36F8F10BDEB
:100E700040000020300000204C0000205C000020DA
:100E8000480000207845002004ED00E010B516E091
:100E900000F044FA0C48C068C468201D00F000FA55
:100EA0000A480068401E0949086009480068401E59
:100EB0000749086000F044FA204600F00BF80448A7
:100EC00000680028E4D110BD184600204000002032
:100ED0003C00002010B50446206B00F041FA20468B
:100EE00000F03EFA10BD000030B54FF488431748BB
:100EF00000F007042CB1C01D20F00700134C041BA8
:100F00001B1B0246124C22600024114D6C60D0184D
:100F1000083820F007000F4C206000240D4D2D688C
:100F20006C600C4D2D682C601146441A4C60094CC5
:100F300024680C60084D4C682C60084D4C682C608F
:100F40004FF00044064D2C6030BD000078010020B9
:100F50000C000020140000201C00002018000020BD
:100F60002800002000BFFFF791FF06480068012815
:100F7000F9D94FF0805004490860BFF34F8FBFF399
:100F80006F8FF0E77845002004ED00E02DE9FF5F6A
:100F900080460E469146DDE90E7A109CA9F10100CB
:100FA000216B01EB800B2BF0070B86B1002507E0CE
:100FB000715D04F134004155705D00B902E06D1CB3
:100FC000102DF5D300BF00214320015502E0002081
:100FD00084F83400052F00D30427E762201D00F0B9
:100FE00080F904F1180000F07CF92461C7F10500D4
:100FF000A06164620020606484F84800414658465D
:10100000039A00F013F92060BAF1000F01D0CAF87A
:101010000040BDE8FF9F000010B5002407E004EB8E
:1010200084010F4A02EB810000F04EF9641C052C8C
:10103000F5D30C4800F048F90B4800F045F90B488F
:1010400000F042F90A4800F03FF90A4800F03CF984
:1010500004480949086004480849086010BD0000B8
:1010600078450020DC450020F045002004460020A3
:10107000184600202C4600203400002038000020B4
:1010800010B50146164800E0006803688B42FBD3A8
:101090000246436813448B4204D143684C6823449E
:1010A000436001460A464B6813440468A34211D1C9
:1010B0000C4C03682468A34208D04B680468646839
:1010C00023444B6003681B680B6005E0054B1B68FD
:1010D0000B6001E003680B60884200D0016010BD26
:1010E0000C0000201400002009480068006808B9BE
:1010F000012000E0002020B14FF0FF3005490860DA
:1011000005E003480068C06800680249086070474D
:10111000340000206000002000BFBF2080F3118851
:10112000BFF34F8FBFF36F8F00BF00BFFEE700001C
:101130002DE9F04104464FF0000800F099F93548D8
:10114000006808B9FFF7D0FE334800682040002847
:101150005BD1B4B104F10800A04212D9083404F004
:10116000070078B104F00700C0F108002044A04255
:1011700005D904F00700C0F10800044402E000248F
:1011800000E00024002C40D02448006884423CD871
:10119000234E3046056801E02E462D686868A0425F
:1011A00002D228680028F7D11A48006885422CD05E
:1011B000306800F10808286830606868001B102853
:1011C00007D92F196868001B78606C603846FFF7F4
:1011D00057FF124968680968081A104908600846EC
:1011E000006810490968884203D20C4800680D491C
:1011F0000860094968680968084368600020286039
:1012000009480068401C0849086000F07BFA404625
:10121000BDE8F08114000020280000201800002004
:101220000C0000201C00002020000020001F4FF0B8
:1012300080730360001F21F001030360001F034B54
:10124000036014380260203870470000191100084C
:1012500021E000BF002220210F48FFF7D3FA00BF92
:1012600000BF012220210D48FFF7CCFA00BF0A2061
:1012700000F0AEF800BF012220210748FFF7C2FAB4
:1012800000BF00BF002220210448FFF7BBFA00BFC7
:101290000A2000F09DF8DCE7000C01400018014036
:1012A00001460A69D1E901309860D1E9010358602B
:1012B0005068884201D18868506000200861106839
:1012C000401E10601068704700F1080141604FF047
:1012D000FF31816000F10801C160016100210160FE
:1012E000704700210161704710B502460B685C1C15
:1012F0000CB9106907E002F1080000E0406844689A
:1013000024689C42FAD944684C604C68A1608860AB
:1013100041600A611468641C146010BD00BFBF20E6
:1013200080F31188BFF34F8FBFF36F8F00BF034867
:101330000068401C01490860704700002C00002034
:1013400006480068401E054908600846006820B944
:10135000002080F3118800BF00BF70472C000020E0
:1013600070B506463546FEB1083D2C460F4960680B
:1013700009680840C0B12068B0B90C4960680968C4
:101380008843606000F074F809496068096808449F
:10139000074908602046FFF773FE06480068401CB6
:1013A0000449086000F0AEF970BD0000280000207C
:1013B000180000202400002000204FF0E0210861E8
:1013C0008861024848610720086170473F190100A1
:1013D00070B50446002544B100F04AF800212046CB
:1013E000FFF782FC00F08EF905463DB94FF08050C2
:1013F00003490860BFF34F8FBFF36F8F70BD0000CC
:1014000004ED00E01CB5124800210B468022CDE916
:10141000001010A1114800F07DF80446012C14D1F1
:1014200000BFBF2080F31188BFF34F8FBFF36F8FD2
:1014300000BF4FF0FF300A490860012009490860E9
:1014400000200949086000F04BF8084800681CBDFE
:101450006400002049444C4500000000650F00086E
:10146000600000204C0000204400002068000020A4
:1014700002480068401C0149086070476C00002069
:101480001248006818B10120114908601DE00020D1
:101490000F4908600F480068B0FA80F0C0F11F01E2
:1014A00001EB81020C4B03EB820042685268426000
:1014B00000F108024368934202D1426852684260D8
:1014C0004268D268054B1A6000BF70476C0000206C
:1014D0005400002048000020784500203000002003
:1014E00010B50A48006840F47F00084908600846C3
:1014F000006840F07F400860FFF75EFF002004496D
:101500000860FEF775FE002010BD000020ED00E031
:101510002C0000202DE9FF4F85B0804689461746F4
:10152000DDE912ABB800FFF703FE064656B14C20CA
:10153000FFF7FEFD04460CB1266304E03046FFF7DA
:101540000FFF00E000247CB10020CDE900ABCDE925
:1015500002403A4649464046089BFFF717FD2046A1
:10156000FFF722FC012501E04FF0FF35284609B0C6
:10157000BDE8F08F2DE9F0410027574800680028AA
:101580007ED156480068451C544805608DB95448C2
:10159000D0F8008053480068514908605148C0F8AD
:1015A000008051480068401C4F490860FFF79CFDCF
:1015B00000BF4E480068854276D300BF48480068A7
:1015C000006808B9012000E0002020B14FF0FF3092
:1015D0004649086067E042480068C068C4686668B9
:1015E000B54202D2414806605DE06069D4E902126A
:1015F0008A60D4E902214A60211D42688A4201D1F1
:10160000E1684160002262610168491E0160A06AD0
:1016100098B1A06AD4E907128A60D4E907214A6028
:1016200004F1180142688A4201D1216A4160002216
:10163000A2620168491E016000BF94F82C100120CD
:1016400088402B490968084329490860E16A01EB91
:101650008101284A02EB81014868A0608268E2604B
:10166000211D826851608160E16A01EB8101214A9C
:1016700002EB81026261E16A01EB81011D4A00E037
:1016800022E052F82110491CE26A02EB8202194B57
:1016900043F822101849E06A0968C96A88428DD364
:1016A00001278BE700E000BF13480068C06A00EB29
:1016B0008000104951F82000012800D901270F4867
:1016C000006800B1012704E00D480068401C0C4987
:1016D00008603846BDE8F0816C000020440000201E
:1016E0003400002038000020580000206000002056
:1016F00048000020784500203000002054000020E1
:101700005000002070B500240026FFF707FE4B486C
:101710000068401E494908600846006800287DD1DD
:1017200047480068002879D05BE04648C068C46834
:10173000A06AD4E907128A60D4E907214A6004F15B
:10174000180142688A4201D1216A41600022A262E6
:101750000168491E01606069D4E902128A60D4E917
:1017600002214A60211D42688A4201D1E16841603C
:10177000002262610168491E016094F82C1001206A
:1017800088403149096808432F490860E16A01EB44
:1017900081012E4A02EB81014868A0608268E26004
:1017A000211D826851608160E16A01EB8101274A55
:1017B00002EB81026261E16A01EB8101234A52F886
:1017C0002110491CE26A02EB8202204B43F82210EE
:1017D0001F49E06A0968C96A884202D301201D498D
:1017E00008601848006808B9012000E000200028BF
:1017F0009BD00CB1FFF778FC1748056865B100BFB6
:10180000FFF7B8FE10B10120124908606D1E002DCF
:10181000F6D10020104908600E4800E009E0006899
:1018200038B1012630070D490860BFF34F8FBFF371
:101830006F8FFFF785FD304670BD00006C00002003
:101840004000002004460020480000207845002089
:1018500030000020540000205000002004ED00E083
:101860008018000800000020700000006C010008D3
:10187000F018000870000020304C000088010008BB
:101880000000000000000000000000000000000058
:101890000000000000000000000000000000000048
:1018A000000000000000000000000000AAAAAAAA90
:1018B0000000000000000000000000000000000028
:1018C0000000000000000000000000000000000018
:1018D0000000000000000000000000000000000008
:1018E00000000000000000000400000000000000F4
:0400000508000131BD
:00000001FF
