:020000040800F2
:1000000080070020CD010008FF090008F70900085B
:10001000FB0900087D020008750B000800000000C5
:10002000000000000000000000000000030A0008BB
:100030008102000800000000010A0008050A00080B
:10004000E7010008E7010008E7010008E7010008F0
:10005000E7010008E7010008E7010008E7010008E0
:10006000E7010008E7010008E7010008E7010008D0
:10007000E7010008E7010008E7010008E7010008C0
:10008000E7010008E7010008E7010008E7010008B0
:10009000E7010008E7010008E7010008E7010008A0
:1000A000E7010008E7010008E7010008E701000890
:1000B000E7010008E7010008E7010008E701000880
:1000C000E7010008E7010008E7010008E701000870
:1000D000E7010008650B0008E7010008E7010008D8
:1000E000E7010008E7010008E7010008E701000850
:1000F000E7010008E7010008E7010008E701000840
:10010000E7010008E7010008E7010008E70100082F
:10011000E7010008E7010008E7010008E70100081F
:10012000E7010008E7010008E7010008E70100080F
:1001300000F002F800F03AF80AA090E8000C8244BF
:100140008344AAF10107DA4501D100F02FF8AFF29C
:10015000090EBAE80F0013F0010F18BFFB1A43F0A5
:10016000010318475C0B00007C0B0000103A24BF11
:1001700078C878C1FAD8520724BF30C830C144BF0C
:1001800004680C607047000000230024002500264E
:10019000103A28BF78C1FBD8520728BF30C148BFEA
:1001A0000B6070471FB51FBD10B510BD00F033F8D0
:1001B0001146FFF7F7FF00F057FD00F051F803B4C8
:1001C000FFF7F2FF03BC00F0D7FC000009488047AE
:1001D00009480047FEE7FEE7FEE7FEE7FEE7FEE729
:1001E000FEE7FEE7FEE7FEE704480549054A064B41
:1001F000704700000D0A000831010008800100204E
:100200008007002080030020800300207047704793
:10021000704770477047754600F02CF8AE460500F1
:100220006946534620F00700854618B020B5FFF711
:10023000DBFFBDE820404FF000064FF000074FF015
:1002400000084FF0000B21F00701AC46ACE8C009F4
:10025000ACE8C009ACE8C009ACE8C0098D467047FD
:1002600010B50446AFF300802046BDE81040FFF70C
:10027000A6BF0000004870472001002000BFFEE735
:100280007047000070B50446002594F8210002284C
:1002900003D00420A0630125C1E02068006820F09D
:1002A0000E00216808602068006820F001002168C5
:1002B00008605C492068884252D95A4978392068D8
:1002C000884201D1012047E05649643920688842BC
:1002D00001D1102040E0534950392068884201D1B3
:1002E000801539E04F493C392068884201D180149B
:1002F00032E04C4928392068884202D14FF48030DE
:100300002AE0484914392068884202D14FF480100D
:1003100022E044492068884201D140041CE042495F
:100320002068884201D1012016E03F49143120683D
:10033000884201D110200FE03B49283120688842D3
:1003400001D1801508E038493C312068884201D14C
:10035000801401E04FF480303349091F086051E0F8
:10036000304978392068884201D1012047E02D4981
:1003700064392068884201D1102040E02949503971
:100380002068884201D1801539E026493C3920682F
:10039000884201D1801432E02249283920688842FD
:1003A00002D14FF480302AE01E4914392068884277
:1003B00002D14FF4801022E01A492068884201D10E
:1003C00040041CE018492068884201D1012016E051
:1003D000154914312068884201D110200FE01249DC
:1003E00028312068884201D1801508E00E493C314F
:1003F0002068884201D1801401E04FF4803009491F
:1004000080394860012084F8210000BF002084F872
:10041000200000BF606B10B12046616B8847284602
:1004200070BD000080000240080402402DE9F8473A
:10043000024600239C467BE14FF0010808FA03F4D2
:10044000D1F8008008EA0400A0427DD1DFF8F4A2D0
:10045000D1F80480A8EB0A09D0453AD014DCB8F1F1
:10046000030F50D009DCB8F1000F31D0B8F1010F03
:100470001CD0B8F1020F49D120E0B8F1110F18D00B
:10048000B8F1120F42D11EE0B9F5881F25D006DC65
:10049000B9F5803F20D0B9F5801F37D11AE0B9F502
:1004A000001F18D0B9F5041F30D117E0D1F80CC0E7
:1004B0002DE0D1F80C8008F1040C28E0D1F80C8074
:1004C00008F1080C23E0D1F80C8008F10C0C1EE0B8
:1004D00000BF00BF00BF00BF00BF00BFD1F8088051
:1004E000B8F1000F02D14FF0040C0BE0D1F80880F6
:1004F000B8F1010F03D14FF0080C146102E04FF086
:10050000080C546103E04FF0000C00E000BF00BF96
:10051000FF2801D8904601E002F104084646FF2872
:1005200002D84FEA830803E0A3F108084FEA8808DD
:100530004746D6F800804FF00F0909FA07F928EA74
:1005400009080CFA07F900E07AE048EA0908C6F859
:100550000080D1F8048008F08058B8F1805F6FD136
:1005600000BFDFF8E481D8F8188048F00108DFF810
:10057000D891C9F81880C846D8F8188008F0010842
:10058000CDF8008000BF00BF4FEAB9384FEA9309A9
:1005900058F829504FEA83784FEA18794FF00F083E
:1005A00008FA09F825EA0805DFF8A081424502D1DA
:1005B0004FF0000824E0DFF89881424502D14FF067
:1005C00001081DE0DFF88C81424502D14FF002089E
:1005D00016E0DFF88481424502D14FF003080FE0B6
:1005E000DFF87881424502D14FF0040808E0DFF8D7
:1005F0007081424502D14FF0050801E04FF0060836
:100600004FEA83794FEA197908FA09F848EA0505AB
:10061000DFF850814FEA930948F82950D1F8048057
:1006200008F48038B8F5803F0BD1DFF83C81D8F86A
:10063000008048EA0008DFF83091C9F800800AE03D
:1006400075E0DFF82481D8F8008028EA0008DFF898
:100650001891C9F80080D1F8048008F40038B8F582
:10066000003F0ED1DFF8008108F10408D8F80080BF
:1006700048EA0008DFF8F09009F10409C9F80080A1
:100680000DE0DFF8E48008F10408D8F8008028EADB
:100690000008DFF8D49009F10409C9F80080D1F806
:1006A000048008F48018B8F5801F0ED1DFF8B880F8
:1006B00008F10808D8F8008048EA0008DFF8A89098
:1006C00009F10809C9F800800DE0DFF89C8008F105
:1006D0000808D8F8008028EA0008DFF88C9009F1B3
:1006E0000809C9F80080D1F8048008F40018B8F5AA
:1006F000001F0ED1DFF8708008F10C08D8F80080D8
:1007000048EA0008DFF8609009F10C09C9F8008098
:100710000DE0DFF8548008F10C08D8F8008028EAD2
:100720000008DFF8449009F10C09C9F800805B1C4F
:10073000D1F8008028FA03F8B8F1000F7FF47CAEFE
:10074000BDE8F887000011100010024000080140C9
:10075000000C01400010014000140140001801404D
:10076000001C014008000140000401400AB1016181
:1007700001E00B04036170470348006803490978EE
:1007800008440149086070470C0000201400002054
:10079000704700002DE9F04704462068056820688E
:1007A000C668206847694FF00008C14605F00F0889
:1007B000B8F1000F0AD105F0200038B106F0200092
:1007C00020B1204600F04DF9BDE8F087B8F1000FE8
:1007D00071D007F0010018B906F4907000286AD0B3
:1007E00005F0010030B106F4807018B1E06B40F004
:1007F0000100E06305F0040030B107F0010018B11A
:10080000E06B40F00200E06305F0020030B107F059
:10081000010018B1E06B40F00400E06305F008004F
:1008200048B106F0200010B907F0010018B1E06BE4
:1008300040F00800E063E06B68B305F0200028B1E9
:1008400006F0200010B1204600F00BF92068406946
:10085000C0F38019E06B00F0080010B9B9F1000F87
:1008600022D0204600F0DDF82068406900F040000A
:10087000B0B12068406920F0400021684861606B99
:1008800050B11848616B4863606BFFF7FBFC10B117
:10089000606B416B88470CE02046FFF779FF08E06A
:1008A0002046FFF775FF04E02046FFF771FF0020A8
:1008B000E06389E7FFE705F0800030B106F08000D3
:1008C00018B1204600F01DF97EE705F0400030B178
:1008D00006F0400018B1204600F0B3F874E700BFFE
:1008E00072E700000F0A000810B5034693F83A00BB
:1008F00020282FD101B10AB9012010BD00BF93F803
:100900003800012801D10220F7E7012083F83800E0
:1009100000BF99629A85DA850020D863222083F887
:100920003A0000BF002083F8380000BF1868C06894
:1009300040F480701C68E0601868406940F0010075
:100940001C6860611868C06840F020001C68E060A6
:100950000020D2E70220D0E710B5044620492068E5
:1009600088423BD11F48008800F4004088BB1D48E6
:10097000008800F4804070B11B4800780A2803D03A
:1009800000201849088024E01648008840F4004000
:10099000144908801DE0144800780D2806D111483C
:1009A000008840F480400F49088012E00E4800782B
:1009B0000C490988C1F30D010C4A505409480088BC
:1009C000401C0849088008460088C72801DD00202F
:1009D0000880012204490648FFF786FF10BD000089
:1009E00000380140080000200A0000201800002004
:1009F000E0000020704700BFFEE700BFFEE7704741
:100A00007047704710B5FFF7B7FE10BD704770B55F
:100A100005466C6A0020E085E0842046FFF7B8FEBA
:100A200070BD0168C96821F490710268D1600168E5
:100A3000496921F0010102685161202180F83A10D2
:100A4000704710B504462068C06820F04000216857
:100A5000C860202084F839002046FFF7CBFF002033
:100A600010BD70B5044694F83A00222847D1A0681A
:100A7000B0F5805F0CD1206950B90025A66A2068C6
:100A80004068C0F308003080A06A801CA06215E0B6
:100A9000A56A0026A068B0F5805F03D0A06828B9D9
:100AA000206918B920684068287004E02068406810
:100AB00000F07F002870A06A401CA062E08D401EFC
:100AC00080B2E085C8B92068C06820F020002168A5
:100AD000C8602068C06820F480702168C860206801
:100AE000406920F0010021684861202084F83A0024
:100AF0002046FFF731FF002070BD0020FCE70220F8
:100B0000FAE7014691F83900212828D18868B0F524
:100B1000805F0BD1086948B90A6A1088C0F30800E1
:100B20000B685860086A801C086205E00B6A581C54
:100B3000086218780B685860C88C401E80B2C88460
:100B400058B90868C06820F080000B68D860086851
:100B5000C06840F040000B68D86000207047022059
:100B6000FCE7000010B50248FFF714FE10BD0000BE
:100B7000E000002000BFFEE700BF704710B504464C
:100B80004FF47A7104FB01F000F002F810BD000090
:100B900070B5034600224FF0E02675690D4E3668A9
:100BA00003FB06F44FF0E026B16910E04FF0E026B9
:100BB000B06988420BD0884202D20E1A324402E059
:100BC0002E1A0E4432440146A24200D300E0EDE763
:100BD00000BF70BD0000002000B585B000BF00BFA1
:100BE0001E48806940F008001C49886108468069F9
:100BF00000F00800009000BF00BF00BF00BF00BFB2
:100C00000846806940F0400088610846806900F02D
:100C10004000009000BF00BF00BF202001900120D5
:100C2000029003900320049001A90D48FFF7FEFBFA
:100C30002020019001A90B48FFF7F8FB00BF01221B
:100C400020210748FFF792FD00BF00BF01222021AD
:100C50000448FFF78BFD00BF05B000BD0010024047
:100C6000000C014000180140FFF7B6FF23E000BF71
:100C7000002220211048FFF779FD00BF00BF0122AC
:100C800020210E48FFF772FD00BF4FF4FA70FFF706
:100C900075FF00BF012220210748FFF767FD00BF55
:100CA00000BF002220210548FFF760FD00BF4FF480
:100CB000FA70FFF763FFDAE7000C0140001801400B
:100CC000E00C000800000020180000006C01000883
:100CD000F80C0008180000206807000088010008D0
:100CE0000000000000000000000000000000000004
:080CF0001000000001000000EB
:0400000508000131BD
:00000001FF
